{
  "_format": "hh-sol-artifact-1",
  "contractName": "FractionalOwnership",
  "sourceName": "contracts/FractionalOwnership.sol",
  "abi": [
    {
      "inputs": [
        {
          "internalType": "string",
          "name": "name",
          "type": "string"
        },
        {
          "internalType": "string",
          "name": "description",
          "type": "string"
        },
        {
          "internalType": "uint256",
          "name": "totalShares",
          "type": "uint256"
        },
        {
          "internalType": "uint256",
          "name": "sharePrice",
          "type": "uint256"
        }
      ],
      "stateMutability": "nonpayable",
      "type": "constructor"
    },
    {
      "inputs": [
        {
          "internalType": "uint256",
          "name": "_numShares",
          "type": "uint256"
        }
      ],
      "name": "buyShares",
      "outputs": [],
      "stateMutability": "payable",
      "type": "function"
    },
    {
      "inputs": [],
      "name": "getDescription",
      "outputs": [
        {
          "internalType": "string",
          "name": "",
          "type": "string"
        }
      ],
      "stateMutability": "view",
      "type": "function"
    },
    {
      "inputs": [
        {
          "internalType": "address",
          "name": "address_",
          "type": "address"
        }
      ],
      "name": "getHoldingShares",
      "outputs": [
        {
          "internalType": "uint256",
          "name": "",
          "type": "uint256"
        }
      ],
      "stateMutability": "view",
      "type": "function"
    },
    {
      "inputs": [],
      "name": "getInfo",
      "outputs": [
        {
          "components": [
            {
              "internalType": "address",
              "name": "owner",
              "type": "address"
            },
            {
              "internalType": "string",
              "name": "name",
              "type": "string"
            },
            {
              "internalType": "string",
              "name": "description",
              "type": "string"
            },
            {
              "internalType": "uint256",
              "name": "totalShares",
              "type": "uint256"
            },
            {
              "internalType": "uint256",
              "name": "sharePrice",
              "type": "uint256"
            },
            {
              "internalType": "uint256",
              "name": "remainingShares",
              "type": "uint256"
            }
          ],
          "internalType": "struct FractionalOwnership.Info",
          "name": "",
          "type": "tuple"
        }
      ],
      "stateMutability": "view",
      "type": "function"
    },
    {
      "inputs": [],
      "name": "getName",
      "outputs": [
        {
          "internalType": "string",
          "name": "",
          "type": "string"
        }
      ],
      "stateMutability": "view",
      "type": "function"
    },
    {
      "inputs": [],
      "name": "getOwner",
      "outputs": [
        {
          "internalType": "address",
          "name": "",
          "type": "address"
        }
      ],
      "stateMutability": "view",
      "type": "function"
    },
    {
      "inputs": [],
      "name": "getRemainingShares",
      "outputs": [
        {
          "internalType": "uint256",
          "name": "",
          "type": "uint256"
        }
      ],
      "stateMutability": "view",
      "type": "function"
    },
    {
      "inputs": [],
      "name": "getSharePrice",
      "outputs": [
        {
          "internalType": "uint256",
          "name": "",
          "type": "uint256"
        }
      ],
      "stateMutability": "view",
      "type": "function"
    },
    {
      "inputs": [],
      "name": "getTotalShares",
      "outputs": [
        {
          "internalType": "uint256",
          "name": "",
          "type": "uint256"
        }
      ],
      "stateMutability": "view",
      "type": "function"
    },
    {
      "inputs": [
        {
          "internalType": "uint256",
          "name": "_numShares",
          "type": "uint256"
        }
      ],
      "name": "sellShares",
      "outputs": [],
      "stateMutability": "nonpayable",
      "type": "function"
    }
  ],
  "bytecode": "0x60806040523480156200001157600080fd5b50604051620014553803806200145583398181016040528101906200003791906200028a565b336000806101000a81548173ffffffffffffffffffffffffffffffffffffffff021916908373ffffffffffffffffffffffffffffffffffffffff16021790555083600190816200008891906200057b565b5082600290816200009a91906200057b565b5081600381905550806004819055506003546005819055505050505062000662565b6000604051905090565b600080fd5b600080fd5b600080fd5b600080fd5b6000601f19601f8301169050919050565b7f4e487b7100000000000000000000000000000000000000000000000000000000600052604160045260246000fd5b6200012582620000da565b810181811067ffffffffffffffff82111715620001475762000146620000eb565b5b80604052505050565b60006200015c620000bc565b90506200016a82826200011a565b919050565b600067ffffffffffffffff8211156200018d576200018c620000eb565b5b6200019882620000da565b9050602081019050919050565b60005b83811015620001c5578082015181840152602081019050620001a8565b60008484015250505050565b6000620001e8620001e2846200016f565b62000150565b905082815260208101848484011115620002075762000206620000d5565b5b62000214848285620001a5565b509392505050565b600082601f830112620002345762000233620000d0565b5b815162000246848260208601620001d1565b91505092915050565b6000819050919050565b62000264816200024f565b81146200027057600080fd5b50565b600081519050620002848162000259565b92915050565b60008060008060808587031215620002a757620002a6620000c6565b5b600085015167ffffffffffffffff811115620002c857620002c7620000cb565b5b620002d6878288016200021c565b945050602085015167ffffffffffffffff811115620002fa57620002f9620000cb565b5b62000308878288016200021c565b93505060406200031b8782880162000273565b92505060606200032e8782880162000273565b91505092959194509250565b600081519050919050565b7f4e487b7100000000000000000000000000000000000000000000000000000000600052602260045260246000fd5b600060028204905060018216806200038d57607f821691505b602082108103620003a357620003a262000345565b5b50919050565b60008190508160005260206000209050919050565b60006020601f8301049050919050565b600082821b905092915050565b6000600883026200040d7fffffffffffffffffffffffffffffffffffffffffffffffffffffffffffffffff82620003ce565b620004198683620003ce565b95508019841693508086168417925050509392505050565b6000819050919050565b60006200045c6200045662000450846200024f565b62000431565b6200024f565b9050919050565b6000819050919050565b62000478836200043b565b62000490620004878262000463565b848454620003db565b825550505050565b600090565b620004a762000498565b620004b48184846200046d565b505050565b5b81811015620004dc57620004d06000826200049d565b600181019050620004ba565b5050565b601f8211156200052b57620004f581620003a9565b6200050084620003be565b8101602085101562000510578190505b620005286200051f85620003be565b830182620004b9565b50505b505050565b600082821c905092915050565b6000620005506000198460080262000530565b1980831691505092915050565b60006200056b83836200053d565b9150826002028217905092915050565b62000586826200033a565b67ffffffffffffffff811115620005a257620005a1620000eb565b5b620005ae825462000374565b620005bb828285620004e0565b600060209050601f831160018114620005f35760008415620005de578287015190505b620005ea85826200055d565b8655506200065a565b601f1984166200060386620003a9565b60005b828110156200062d5784890151825560018201915060208501945060208101905062000606565b868310156200064d578489015162000649601f8916826200053d565b8355505b6001600288020188555050505b505050505050565b610de380620006726000396000f3fe6080604052600436106100915760003560e01c80635b1dac60116100595780635b1dac601461017d578063893d20e8146101a8578063d1a93d18146101d3578063d5002f2e146101ef578063f9ab71181461021a57610091565b806317d7de7c146100965780631a092541146100c15780634ba8ae81146100ec57806356336886146101155780635a9b0b8914610152575b600080fd5b3480156100a257600080fd5b506100ab610245565b6040516100b891906108ad565b60405180910390f35b3480156100cd57600080fd5b506100d66102d7565b6040516100e391906108ad565b60405180910390f35b3480156100f857600080fd5b50610113600480360381019061010e919061090a565b610369565b005b34801561012157600080fd5b5061013c60048036038101906101379190610995565b6104b1565b60405161014991906109d1565b60405180910390f35b34801561015e57600080fd5b506101676104fa565b6040516101749190610ae4565b60405180910390f35b34801561018957600080fd5b50610192610684565b60405161019f91906109d1565b60405180910390f35b3480156101b457600080fd5b506101bd61068e565b6040516101ca9190610b15565b60405180910390f35b6101ed60048036038101906101e8919061090a565b6106b7565b005b3480156101fb57600080fd5b506102046107bd565b60405161021191906109d1565b60405180910390f35b34801561022657600080fd5b5061022f6107c7565b60405161023c91906109d1565b60405180910390f35b60606001805461025490610b5f565b80601f016020809104026020016040519081016040528092919081815260200182805461028090610b5f565b80156102cd5780601f106102a2576101008083540402835291602001916102cd565b820191906000526020600020905b8154815290600101906020018083116102b057829003601f168201915b5050505050905090565b6060600280546102e690610b5f565b80601f016020809104026020016040519081016040528092919081815260200182805461031290610b5f565b801561035f5780601f106103345761010080835404028352916020019161035f565b820191906000526020600020905b81548152906001019060200180831161034257829003601f168201915b5050505050905090565b600660003373ffffffffffffffffffffffffffffffffffffffff1673ffffffffffffffffffffffffffffffffffffffff168152602001908152602001600020548111156103eb576040517f08c379a00000000000000000000000000000000000000000000000000000000081526004016103e290610bdc565b60405180910390fd5b80600660003373ffffffffffffffffffffffffffffffffffffffff1673ffffffffffffffffffffffffffffffffffffffff168152602001908152602001600020600082825461043a9190610c2b565b9250508190555080600560008282546104539190610c5f565b925050819055503373ffffffffffffffffffffffffffffffffffffffff166108fc600454836104829190610c93565b9081150290604051600060405180830381858888f193505050501580156104ad573d6000803e3d6000fd5b5050565b6000600660008373ffffffffffffffffffffffffffffffffffffffff1673ffffffffffffffffffffffffffffffffffffffff168152602001908152602001600020549050919050565b6105026107d1565b6040518060c0016040528060008054906101000a900473ffffffffffffffffffffffffffffffffffffffff1673ffffffffffffffffffffffffffffffffffffffff1681526020016001805461055690610b5f565b80601f016020809104026020016040519081016040528092919081815260200182805461058290610b5f565b80156105cf5780601f106105a4576101008083540402835291602001916105cf565b820191906000526020600020905b8154815290600101906020018083116105b257829003601f168201915b50505050508152602001600280546105e690610b5f565b80601f016020809104026020016040519081016040528092919081815260200182805461061290610b5f565b801561065f5780601f106106345761010080835404028352916020019161065f565b820191906000526020600020905b81548152906001019060200180831161064257829003601f168201915b5050505050815260200160035481526020016004548152602001600554815250905090565b6000600454905090565b60008060009054906101000a900473ffffffffffffffffffffffffffffffffffffffff16905090565b600454816106c59190610c93565b3414610706576040517f08c379a00000000000000000000000000000000000000000000000000000000081526004016106fd90610d21565b60405180910390fd5b60055481111561074b576040517f08c379a000000000000000000000000000000000000000000000000000000000815260040161074290610d8d565b60405180910390fd5b80600660003373ffffffffffffffffffffffffffffffffffffffff1673ffffffffffffffffffffffffffffffffffffffff168152602001908152602001600020600082825461079a9190610c5f565b9250508190555080600560008282546107b39190610c2b565b9250508190555050565b6000600354905090565b6000600554905090565b6040518060c00160405280600073ffffffffffffffffffffffffffffffffffffffff16815260200160608152602001606081526020016000815260200160008152602001600081525090565b600081519050919050565b600082825260208201905092915050565b60005b8381101561085757808201518184015260208101905061083c565b60008484015250505050565b6000601f19601f8301169050919050565b600061087f8261081d565b6108898185610828565b9350610899818560208601610839565b6108a281610863565b840191505092915050565b600060208201905081810360008301526108c78184610874565b905092915050565b600080fd5b6000819050919050565b6108e7816108d4565b81146108f257600080fd5b50565b600081359050610904816108de565b92915050565b6000602082840312156109205761091f6108cf565b5b600061092e848285016108f5565b91505092915050565b600073ffffffffffffffffffffffffffffffffffffffff82169050919050565b600061096282610937565b9050919050565b61097281610957565b811461097d57600080fd5b50565b60008135905061098f81610969565b92915050565b6000602082840312156109ab576109aa6108cf565b5b60006109b984828501610980565b91505092915050565b6109cb816108d4565b82525050565b60006020820190506109e660008301846109c2565b92915050565b6109f581610957565b82525050565b600082825260208201905092915050565b6000610a178261081d565b610a2181856109fb565b9350610a31818560208601610839565b610a3a81610863565b840191505092915050565b610a4e816108d4565b82525050565b600060c083016000830151610a6c60008601826109ec565b5060208301518482036020860152610a848282610a0c565b91505060408301518482036040860152610a9e8282610a0c565b9150506060830151610ab36060860182610a45565b506080830151610ac66080860182610a45565b5060a0830151610ad960a0860182610a45565b508091505092915050565b60006020820190508181036000830152610afe8184610a54565b905092915050565b610b0f81610957565b82525050565b6000602082019050610b2a6000830184610b06565b92915050565b7f4e487b7100000000000000000000000000000000000000000000000000000000600052602260045260246000fd5b60006002820490506001821680610b7757607f821691505b602082108103610b8a57610b89610b30565b5b50919050565b7f4e6f7420656e6f7567682073686172657320746f2073656c6c00000000000000600082015250565b6000610bc6601983610828565b9150610bd182610b90565b602082019050919050565b60006020820190508181036000830152610bf581610bb9565b9050919050565b7f4e487b7100000000000000000000000000000000000000000000000000000000600052601160045260246000fd5b6000610c36826108d4565b9150610c41836108d4565b9250828203905081811115610c5957610c58610bfc565b5b92915050565b6000610c6a826108d4565b9150610c75836108d4565b9250828201905080821115610c8d57610c8c610bfc565b5b92915050565b6000610c9e826108d4565b9150610ca9836108d4565b9250828202610cb7816108d4565b91508282048414831517610cce57610ccd610bfc565b5b5092915050565b7f496e636f727265637420616d6f756e742073656e740000000000000000000000600082015250565b6000610d0b601583610828565b9150610d1682610cd5565b602082019050919050565b60006020820190508181036000830152610d3a81610cfe565b9050919050565b7f4e6f7420656e6f7567682073686172657320617661696c61626c650000000000600082015250565b6000610d77601b83610828565b9150610d8282610d41565b602082019050919050565b60006020820190508181036000830152610da681610d6a565b905091905056fea264697066735822122074be53df0708c3bb5b5b3638f9a957dff4f37ecc6e43c7380b77225a115978e664736f6c63430008120033",
  "linkReferences": {},
  "deployedLinkReferences": {}
}