{
  "_format": "hh-sol-artifact-1",
  "contractName": "FractionalOwnership",
  "sourceName": "contracts/FractionalOwnership.sol",
  "abi": [
    {
      "inputs": [
        {
          "internalType": "string",
          "name": "name",
          "type": "string"
        },
        {
          "internalType": "string",
          "name": "description",
          "type": "string"
        },
        {
          "internalType": "string",
          "name": "propertyAddress",
          "type": "string"
        },
        {
          "internalType": "uint256",
          "name": "totalShares",
          "type": "uint256"
        },
        {
          "internalType": "uint256",
          "name": "sharePrice",
          "type": "uint256"
        },
        {
          "internalType": "address[]",
          "name": "approvedBuyers",
          "type": "address[]"
        }
      ],
      "stateMutability": "nonpayable",
      "type": "constructor"
    },
    {
      "inputs": [
        {
          "internalType": "address[]",
          "name": "toAddAddresses",
          "type": "address[]"
        }
      ],
      "name": "addApprovedBuyers",
      "outputs": [],
      "stateMutability": "nonpayable",
      "type": "function"
    },
    {
      "inputs": [
        {
          "internalType": "uint256",
          "name": "_numShares",
          "type": "uint256"
        }
      ],
      "name": "buyShares",
      "outputs": [],
      "stateMutability": "payable",
      "type": "function"
    },
    {
      "inputs": [],
      "name": "getDescription",
      "outputs": [
        {
          "internalType": "string",
          "name": "",
          "type": "string"
        }
      ],
      "stateMutability": "view",
      "type": "function"
    },
    {
      "inputs": [
        {
          "internalType": "address",
          "name": "buyerAddress",
          "type": "address"
        }
      ],
      "name": "getInfo",
      "outputs": [
        {
          "components": [
            {
              "internalType": "address",
              "name": "owner",
              "type": "address"
            },
            {
              "internalType": "string",
              "name": "name",
              "type": "string"
            },
            {
              "internalType": "string",
              "name": "description",
              "type": "string"
            },
            {
              "internalType": "string",
              "name": "propertyAddress",
              "type": "string"
            },
            {
              "internalType": "uint256",
              "name": "totalShares",
              "type": "uint256"
            },
            {
              "internalType": "uint256",
              "name": "sharePrice",
              "type": "uint256"
            },
            {
              "internalType": "uint256",
              "name": "remainingShares",
              "type": "uint256"
            },
            {
              "internalType": "bool",
              "name": "approvedBuy",
              "type": "bool"
            }
          ],
          "internalType": "struct FractionalOwnership.Info",
          "name": "",
          "type": "tuple"
        }
      ],
      "stateMutability": "view",
      "type": "function"
    },
    {
      "inputs": [],
      "name": "getName",
      "outputs": [
        {
          "internalType": "string",
          "name": "",
          "type": "string"
        }
      ],
      "stateMutability": "view",
      "type": "function"
    },
    {
      "inputs": [],
      "name": "getOwner",
      "outputs": [
        {
          "internalType": "address",
          "name": "",
          "type": "address"
        }
      ],
      "stateMutability": "view",
      "type": "function"
    },
    {
      "inputs": [
        {
          "internalType": "address",
          "name": "address_",
          "type": "address"
        }
      ],
      "name": "getOwningShares",
      "outputs": [
        {
          "internalType": "uint256",
          "name": "",
          "type": "uint256"
        }
      ],
      "stateMutability": "view",
      "type": "function"
    },
    {
      "inputs": [],
      "name": "getPropertyAddress",
      "outputs": [
        {
          "internalType": "string",
          "name": "",
          "type": "string"
        }
      ],
      "stateMutability": "view",
      "type": "function"
    },
    {
      "inputs": [],
      "name": "getRemainingShares",
      "outputs": [
        {
          "internalType": "uint256",
          "name": "",
          "type": "uint256"
        }
      ],
      "stateMutability": "view",
      "type": "function"
    },
    {
      "inputs": [],
      "name": "getSharePrice",
      "outputs": [
        {
          "internalType": "uint256",
          "name": "",
          "type": "uint256"
        }
      ],
      "stateMutability": "view",
      "type": "function"
    },
    {
      "inputs": [],
      "name": "getTotalShares",
      "outputs": [
        {
          "internalType": "uint256",
          "name": "",
          "type": "uint256"
        }
      ],
      "stateMutability": "view",
      "type": "function"
    },
    {
      "inputs": [
        {
          "internalType": "address[]",
          "name": "toRemoveAddresses",
          "type": "address[]"
        }
      ],
      "name": "removeFromApprovedBuyers",
      "outputs": [],
      "stateMutability": "nonpayable",
      "type": "function"
    },
    {
      "inputs": [
        {
          "internalType": "uint256",
          "name": "_numShares",
          "type": "uint256"
        }
      ],
      "name": "sellShares",
      "outputs": [],
      "stateMutability": "nonpayable",
      "type": "function"
    }
  ],
  "bytecode": "0x60806040523480156200001157600080fd5b5060405162001ddb38038062001ddb833981810160405281019062000037919062000546565b336000806101000a81548173ffffffffffffffffffffffffffffffffffffffff021916908373ffffffffffffffffffffffffffffffffffffffff16021790555085600190805190602001906200008f9291906200017e565b508460029080519060200190620000a89291906200017e565b508360039080519060200190620000c19291906200017e565b50826004819055508160058190555060045460068190555060005b815181101562000171576001600860008484815181106200010257620001016200065e565b5b602002602001015173ffffffffffffffffffffffffffffffffffffffff1673ffffffffffffffffffffffffffffffffffffffff16815260200190815260200160002060006101000a81548160ff02191690831515021790555080806200016890620006bc565b915050620000dc565b505050505050506200076f565b8280546200018c9062000739565b90600052602060002090601f016020900481019282620001b05760008555620001fc565b82601f10620001cb57805160ff1916838001178555620001fc565b82800160010185558215620001fc579182015b82811115620001fb578251825591602001919060010190620001de565b5b5090506200020b91906200020f565b5090565b5b808211156200022a57600081600090555060010162000210565b5090565b6000604051905090565b600080fd5b600080fd5b600080fd5b600080fd5b6000601f19601f8301169050919050565b7f4e487b7100000000000000000000000000000000000000000000000000000000600052604160045260246000fd5b62000297826200024c565b810181811067ffffffffffffffff82111715620002b957620002b86200025d565b5b80604052505050565b6000620002ce6200022e565b9050620002dc82826200028c565b919050565b600067ffffffffffffffff821115620002ff57620002fe6200025d565b5b6200030a826200024c565b9050602081019050919050565b60005b83811015620003375780820151818401526020810190506200031a565b8381111562000347576000848401525b50505050565b6000620003646200035e84620002e1565b620002c2565b90508281526020810184848401111562000383576200038262000247565b5b6200039084828562000317565b509392505050565b600082601f830112620003b057620003af62000242565b5b8151620003c28482602086016200034d565b91505092915050565b6000819050919050565b620003e081620003cb565b8114620003ec57600080fd5b50565b6000815190506200040081620003d5565b92915050565b600067ffffffffffffffff8211156200042457620004236200025d565b5b602082029050602081019050919050565b600080fd5b600073ffffffffffffffffffffffffffffffffffffffff82169050919050565b600062000467826200043a565b9050919050565b62000479816200045a565b81146200048557600080fd5b50565b60008151905062000499816200046e565b92915050565b6000620004b6620004b08462000406565b620002c2565b90508083825260208201905060208402830185811115620004dc57620004db62000435565b5b835b81811015620005095780620004f4888262000488565b845260208401935050602081019050620004de565b5050509392505050565b600082601f8301126200052b576200052a62000242565b5b81516200053d8482602086016200049f565b91505092915050565b60008060008060008060c0878903121562000566576200056562000238565b5b600087015167ffffffffffffffff8111156200058757620005866200023d565b5b6200059589828a0162000398565b965050602087015167ffffffffffffffff811115620005b957620005b86200023d565b5b620005c789828a0162000398565b955050604087015167ffffffffffffffff811115620005eb57620005ea6200023d565b5b620005f989828a0162000398565b94505060606200060c89828a01620003ef565b93505060806200061f89828a01620003ef565b92505060a087015167ffffffffffffffff8111156200064357620006426200023d565b5b6200065189828a0162000513565b9150509295509295509295565b7f4e487b7100000000000000000000000000000000000000000000000000000000600052603260045260246000fd5b7f4e487b7100000000000000000000000000000000000000000000000000000000600052601160045260246000fd5b6000620006c982620003cb565b91507fffffffffffffffffffffffffffffffffffffffffffffffffffffffffffffffff821415620006ff57620006fe6200068d565b5b600182019050919050565b7f4e487b7100000000000000000000000000000000000000000000000000000000600052602260045260246000fd5b600060028204905060018216806200075257607f821691505b602082108114156200076957620007686200070a565b5b50919050565b61165c806200077f6000396000f3fe6080604052600436106100c25760003560e01c8063893d20e81161007f578063d5002f2e11610059578063d5002f2e14610247578063f2c4769a14610272578063f9ab71181461029d578063ffdd5cf1146102c8576100c2565b8063893d20e8146101d75780638e2b5e6914610202578063d1a93d181461022b576100c2565b806317d7de7c146100c75780631a092541146100f25780632355207a1461011d5780634ba8ae811461015a5780635b1dac6014610183578063811237ec146101ae575b600080fd5b3480156100d357600080fd5b506100dc610305565b6040516100e99190610e75565b60405180910390f35b3480156100fe57600080fd5b50610107610397565b6040516101149190610e75565b60405180910390f35b34801561012957600080fd5b50610144600480360381019061013f9190610eff565b610429565b6040516101519190610f45565b60405180910390f35b34801561016657600080fd5b50610181600480360381019061017c9190610f8c565b610472565b005b34801561018f57600080fd5b50610198610646565b6040516101a59190610f45565b60405180910390f35b3480156101ba57600080fd5b506101d560048036038101906101d0919061101e565b610650565b005b3480156101e357600080fd5b506101ec61077a565b6040516101f9919061107a565b60405180910390f35b34801561020e57600080fd5b506102296004803603810190610224919061101e565b6107a3565b005b61024560048036038101906102409190610f8c565b6108d6565b005b34801561025357600080fd5b5061025c610a68565b6040516102699190610f45565b60405180910390f35b34801561027e57600080fd5b50610287610a72565b6040516102949190610e75565b60405180910390f35b3480156102a957600080fd5b506102b2610b04565b6040516102bf9190610f45565b60405180910390f35b3480156102d457600080fd5b506102ef60048036038101906102ea9190610eff565b610b0e565b6040516102fc91906111d6565b60405180910390f35b60606001805461031490611227565b80601f016020809104026020016040519081016040528092919081815260200182805461034090611227565b801561038d5780601f106103625761010080835404028352916020019161038d565b820191906000526020600020905b81548152906001019060200180831161037057829003601f168201915b5050505050905090565b6060600280546103a690611227565b80601f01602080910402602001604051908101604052809291908181526020018280546103d290611227565b801561041f5780601f106103f45761010080835404028352916020019161041f565b820191906000526020600020905b81548152906001019060200180831161040257829003601f168201915b5050505050905090565b6000600760008373ffffffffffffffffffffffffffffffffffffffff1673ffffffffffffffffffffffffffffffffffffffff168152602001908152602001600020549050919050565b600860003373ffffffffffffffffffffffffffffffffffffffff1673ffffffffffffffffffffffffffffffffffffffff16815260200190815260200160002060009054906101000a900460ff166104fe576040517f08c379a00000000000000000000000000000000000000000000000000000000081526004016104f5906112a5565b60405180910390fd5b600760003373ffffffffffffffffffffffffffffffffffffffff1673ffffffffffffffffffffffffffffffffffffffff16815260200190815260200160002054811115610580576040517f08c379a000000000000000000000000000000000000000000000000000000000815260040161057790611311565b60405180910390fd5b80600760003373ffffffffffffffffffffffffffffffffffffffff1673ffffffffffffffffffffffffffffffffffffffff16815260200190815260200160002060008282546105cf9190611360565b9250508190555080600660008282546105e89190611394565b925050819055503373ffffffffffffffffffffffffffffffffffffffff166108fc6005548361061791906113ea565b9081150290604051600060405180830381858888f19350505050158015610642573d6000803e3d6000fd5b5050565b6000600554905090565b60008054906101000a900473ffffffffffffffffffffffffffffffffffffffff1673ffffffffffffffffffffffffffffffffffffffff163373ffffffffffffffffffffffffffffffffffffffff16146106de576040517f08c379a00000000000000000000000000000000000000000000000000000000081526004016106d5906114b6565b60405180910390fd5b60005b828290508110156107755760086000848484818110610703576107026114d6565b5b90506020020160208101906107189190610eff565b73ffffffffffffffffffffffffffffffffffffffff1673ffffffffffffffffffffffffffffffffffffffff16815260200190815260200160002060006101000a81549060ff0219169055808061076d90611505565b9150506106e1565b505050565b60008060009054906101000a900473ffffffffffffffffffffffffffffffffffffffff16905090565b60008054906101000a900473ffffffffffffffffffffffffffffffffffffffff1673ffffffffffffffffffffffffffffffffffffffff163373ffffffffffffffffffffffffffffffffffffffff1614610831576040517f08c379a0000000000000000000000000000000000000000000000000000000008152600401610828906114b6565b60405180910390fd5b60005b828290508110156108d157600160086000858585818110610858576108576114d6565b5b905060200201602081019061086d9190610eff565b73ffffffffffffffffffffffffffffffffffffffff1673ffffffffffffffffffffffffffffffffffffffff16815260200190815260200160002060006101000a81548160ff02191690831515021790555080806108c990611505565b915050610834565b505050565b600860003373ffffffffffffffffffffffffffffffffffffffff1673ffffffffffffffffffffffffffffffffffffffff16815260200190815260200160002060009054906101000a900460ff16610962576040517f08c379a0000000000000000000000000000000000000000000000000000000008152600401610959906112a5565b60405180910390fd5b6005548161097091906113ea565b34146109b1576040517f08c379a00000000000000000000000000000000000000000000000000000000081526004016109a89061159a565b60405180910390fd5b6006548111156109f6576040517f08c379a00000000000000000000000000000000000000000000000000000000081526004016109ed90611606565b60405180910390fd5b80600760003373ffffffffffffffffffffffffffffffffffffffff1673ffffffffffffffffffffffffffffffffffffffff1681526020019081526020016000206000828254610a459190611394565b925050819055508060066000828254610a5e9190611360565b9250508190555050565b6000600454905090565b606060038054610a8190611227565b80601f0160208091040260200160405190810160405280929190818152602001828054610aad90611227565b8015610afa5780601f10610acf57610100808354040283529160200191610afa565b820191906000526020600020905b815481529060010190602001808311610add57829003601f168201915b5050505050905090565b6000600654905090565b610b16610d7f565b60405180610100016040528060008054906101000a900473ffffffffffffffffffffffffffffffffffffffff1673ffffffffffffffffffffffffffffffffffffffff16815260200160018054610b6b90611227565b80601f0160208091040260200160405190810160405280929190818152602001828054610b9790611227565b8015610be45780601f10610bb957610100808354040283529160200191610be4565b820191906000526020600020905b815481529060010190602001808311610bc757829003601f168201915b5050505050815260200160028054610bfb90611227565b80601f0160208091040260200160405190810160405280929190818152602001828054610c2790611227565b8015610c745780601f10610c4957610100808354040283529160200191610c74565b820191906000526020600020905b815481529060010190602001808311610c5757829003601f168201915b5050505050815260200160038054610c8b90611227565b80601f0160208091040260200160405190810160405280929190818152602001828054610cb790611227565b8015610d045780601f10610cd957610100808354040283529160200191610d04565b820191906000526020600020905b815481529060010190602001808311610ce757829003601f168201915b50505050508152602001600454815260200160055481526020016006548152602001600860008573ffffffffffffffffffffffffffffffffffffffff1673ffffffffffffffffffffffffffffffffffffffff16815260200190815260200160002060009054906101000a900460ff1615158152509050919050565b604051806101000160405280600073ffffffffffffffffffffffffffffffffffffffff1681526020016060815260200160608152602001606081526020016000815260200160008152602001600081526020016000151581525090565b600081519050919050565b600082825260208201905092915050565b60005b83811015610e16578082015181840152602081019050610dfb565b83811115610e25576000848401525b50505050565b6000601f19601f8301169050919050565b6000610e4782610ddc565b610e518185610de7565b9350610e61818560208601610df8565b610e6a81610e2b565b840191505092915050565b60006020820190508181036000830152610e8f8184610e3c565b905092915050565b600080fd5b600080fd5b600073ffffffffffffffffffffffffffffffffffffffff82169050919050565b6000610ecc82610ea1565b9050919050565b610edc81610ec1565b8114610ee757600080fd5b50565b600081359050610ef981610ed3565b92915050565b600060208284031215610f1557610f14610e97565b5b6000610f2384828501610eea565b91505092915050565b6000819050919050565b610f3f81610f2c565b82525050565b6000602082019050610f5a6000830184610f36565b92915050565b610f6981610f2c565b8114610f7457600080fd5b50565b600081359050610f8681610f60565b92915050565b600060208284031215610fa257610fa1610e97565b5b6000610fb084828501610f77565b91505092915050565b600080fd5b600080fd5b600080fd5b60008083601f840112610fde57610fdd610fb9565b5b8235905067ffffffffffffffff811115610ffb57610ffa610fbe565b5b60208301915083602082028301111561101757611016610fc3565b5b9250929050565b6000806020838503121561103557611034610e97565b5b600083013567ffffffffffffffff81111561105357611052610e9c565b5b61105f85828601610fc8565b92509250509250929050565b61107481610ec1565b82525050565b600060208201905061108f600083018461106b565b92915050565b61109e81610ec1565b82525050565b600082825260208201905092915050565b60006110c082610ddc565b6110ca81856110a4565b93506110da818560208601610df8565b6110e381610e2b565b840191505092915050565b6110f781610f2c565b82525050565b60008115159050919050565b611112816110fd565b82525050565b6000610100830160008301516111316000860182611095565b506020830151848203602086015261114982826110b5565b9150506040830151848203604086015261116382826110b5565b9150506060830151848203606086015261117d82826110b5565b915050608083015161119260808601826110ee565b5060a08301516111a560a08601826110ee565b5060c08301516111b860c08601826110ee565b5060e08301516111cb60e0860182611109565b508091505092915050565b600060208201905081810360008301526111f08184611118565b905092915050565b7f4e487b7100000000000000000000000000000000000000000000000000000000600052602260045260246000fd5b6000600282049050600182168061123f57607f821691505b60208210811415611253576112526111f8565b5b50919050565b7f4f6e6c7920417070726f766564204275796572732043616e2054726164650000600082015250565b600061128f601e83610de7565b915061129a82611259565b602082019050919050565b600060208201905081810360008301526112be81611282565b9050919050565b7f4e6f7420656e6f7567682073686172657320746f2073656c6c00000000000000600082015250565b60006112fb601983610de7565b9150611306826112c5565b602082019050919050565b6000602082019050818103600083015261132a816112ee565b9050919050565b7f4e487b7100000000000000000000000000000000000000000000000000000000600052601160045260246000fd5b600061136b82610f2c565b915061137683610f2c565b92508282101561138957611388611331565b5b828203905092915050565b600061139f82610f2c565b91506113aa83610f2c565b9250827fffffffffffffffffffffffffffffffffffffffffffffffffffffffffffffffff038211156113df576113de611331565b5b828201905092915050565b60006113f582610f2c565b915061140083610f2c565b9250817fffffffffffffffffffffffffffffffffffffffffffffffffffffffffffffffff048311821515161561143957611438611331565b5b828202905092915050565b7f4f6e6c79206f776e65722063616e2063616c6c20746869732066756e6374696f60008201527f6e00000000000000000000000000000000000000000000000000000000000000602082015250565b60006114a0602183610de7565b91506114ab82611444565b604082019050919050565b600060208201905081810360008301526114cf81611493565b9050919050565b7f4e487b7100000000000000000000000000000000000000000000000000000000600052603260045260246000fd5b600061151082610f2c565b91507fffffffffffffffffffffffffffffffffffffffffffffffffffffffffffffffff82141561154357611542611331565b5b600182019050919050565b7f496e636f727265637420616d6f756e742073656e740000000000000000000000600082015250565b6000611584601583610de7565b915061158f8261154e565b602082019050919050565b600060208201905081810360008301526115b381611577565b9050919050565b7f4e6f7420656e6f7567682073686172657320617661696c61626c650000000000600082015250565b60006115f0601b83610de7565b91506115fb826115ba565b602082019050919050565b6000602082019050818103600083015261161f816115e3565b905091905056fea26469706673582212208f87d65233f8ac15ee6c2bdbf9e62ff4d65b38ccf380e35bcad8a060a285184e64736f6c63430008090033",
  "linkReferences": {},
  "deployedLinkReferences": {}
}