{
  "_format": "hh-sol-artifact-1",
  "contractName": "FractionalOwnership",
  "sourceName": "contracts/FractionalOwnership.sol",
  "abi": [
    {
      "inputs": [
        {
          "internalType": "string",
          "name": "name",
          "type": "string"
        },
        {
          "internalType": "string",
          "name": "description",
          "type": "string"
        },
        {
          "internalType": "uint256",
          "name": "totalShares",
          "type": "uint256"
        },
        {
          "internalType": "uint256",
          "name": "sharePrice",
          "type": "uint256"
        },
        {
          "internalType": "address[]",
          "name": "approvedBuyers",
          "type": "address[]"
        }
      ],
      "stateMutability": "nonpayable",
      "type": "constructor"
    },
    {
      "inputs": [
        {
          "internalType": "address[]",
          "name": "toAddAddresses",
          "type": "address[]"
        }
      ],
      "name": "addApprovedBuyers",
      "outputs": [],
      "stateMutability": "nonpayable",
      "type": "function"
    },
    {
      "inputs": [
        {
          "internalType": "uint256",
          "name": "_numShares",
          "type": "uint256"
        }
      ],
      "name": "buyShares",
      "outputs": [],
      "stateMutability": "payable",
      "type": "function"
    },
    {
      "inputs": [],
      "name": "getDescription",
      "outputs": [
        {
          "internalType": "string",
          "name": "",
          "type": "string"
        }
      ],
      "stateMutability": "view",
      "type": "function"
    },
    {
      "inputs": [
        {
          "internalType": "address",
          "name": "buyerAddress",
          "type": "address"
        }
      ],
      "name": "getInfo",
      "outputs": [
        {
          "components": [
            {
              "internalType": "address",
              "name": "owner",
              "type": "address"
            },
            {
              "internalType": "string",
              "name": "name",
              "type": "string"
            },
            {
              "internalType": "string",
              "name": "description",
              "type": "string"
            },
            {
              "internalType": "uint256",
              "name": "totalShares",
              "type": "uint256"
            },
            {
              "internalType": "uint256",
              "name": "sharePrice",
              "type": "uint256"
            },
            {
              "internalType": "uint256",
              "name": "remainingShares",
              "type": "uint256"
            },
            {
              "internalType": "bool",
              "name": "approvedBuy",
              "type": "bool"
            }
          ],
          "internalType": "struct FractionalOwnership.Info",
          "name": "",
          "type": "tuple"
        }
      ],
      "stateMutability": "view",
      "type": "function"
    },
    {
      "inputs": [],
      "name": "getName",
      "outputs": [
        {
          "internalType": "string",
          "name": "",
          "type": "string"
        }
      ],
      "stateMutability": "view",
      "type": "function"
    },
    {
      "inputs": [],
      "name": "getOwner",
      "outputs": [
        {
          "internalType": "address",
          "name": "",
          "type": "address"
        }
      ],
      "stateMutability": "view",
      "type": "function"
    },
    {
      "inputs": [
        {
          "internalType": "address",
          "name": "address_",
          "type": "address"
        }
      ],
      "name": "getOwningShares",
      "outputs": [
        {
          "internalType": "uint256",
          "name": "",
          "type": "uint256"
        }
      ],
      "stateMutability": "view",
      "type": "function"
    },
    {
      "inputs": [],
      "name": "getRemainingShares",
      "outputs": [
        {
          "internalType": "uint256",
          "name": "",
          "type": "uint256"
        }
      ],
      "stateMutability": "view",
      "type": "function"
    },
    {
      "inputs": [],
      "name": "getSharePrice",
      "outputs": [
        {
          "internalType": "uint256",
          "name": "",
          "type": "uint256"
        }
      ],
      "stateMutability": "view",
      "type": "function"
    },
    {
      "inputs": [],
      "name": "getTotalShares",
      "outputs": [
        {
          "internalType": "uint256",
          "name": "",
          "type": "uint256"
        }
      ],
      "stateMutability": "view",
      "type": "function"
    },
    {
      "inputs": [
        {
          "internalType": "address[]",
          "name": "toRemoveAddresses",
          "type": "address[]"
        }
      ],
      "name": "removeFromApprovedBuyers",
      "outputs": [],
      "stateMutability": "nonpayable",
      "type": "function"
    },
    {
      "inputs": [
        {
          "internalType": "uint256",
          "name": "_numShares",
          "type": "uint256"
        }
      ],
      "name": "sellShares",
      "outputs": [],
      "stateMutability": "nonpayable",
      "type": "function"
    }
  ],
  "bytecode": "0x60806040523480156200001157600080fd5b5060405162001db738038062001db7833981810160405281019062000037919062000464565b336000806101000a81548173ffffffffffffffffffffffffffffffffffffffff021916908373ffffffffffffffffffffffffffffffffffffffff16021790555084600190816200008891906200078a565b5083600290816200009a91906200078a565b50826003819055508160048190555060035460058190555060005b81518110156200014a57600160076000848481518110620000db57620000da62000871565b5b602002602001015173ffffffffffffffffffffffffffffffffffffffff1673ffffffffffffffffffffffffffffffffffffffff16815260200190815260200160002060006101000a81548160ff02191690831515021790555080806200014190620008cf565b915050620000b5565b5050505050506200091c565b6000604051905090565b600080fd5b600080fd5b600080fd5b600080fd5b6000601f19601f8301169050919050565b7f4e487b7100000000000000000000000000000000000000000000000000000000600052604160045260246000fd5b620001bf8262000174565b810181811067ffffffffffffffff82111715620001e157620001e062000185565b5b80604052505050565b6000620001f662000156565b9050620002048282620001b4565b919050565b600067ffffffffffffffff82111562000227576200022662000185565b5b620002328262000174565b9050602081019050919050565b60005b838110156200025f57808201518184015260208101905062000242565b60008484015250505050565b6000620002826200027c8462000209565b620001ea565b905082815260208101848484011115620002a157620002a06200016f565b5b620002ae8482856200023f565b509392505050565b600082601f830112620002ce57620002cd6200016a565b5b8151620002e08482602086016200026b565b91505092915050565b6000819050919050565b620002fe81620002e9565b81146200030a57600080fd5b50565b6000815190506200031e81620002f3565b92915050565b600067ffffffffffffffff82111562000342576200034162000185565b5b602082029050602081019050919050565b600080fd5b600073ffffffffffffffffffffffffffffffffffffffff82169050919050565b6000620003858262000358565b9050919050565b620003978162000378565b8114620003a357600080fd5b50565b600081519050620003b7816200038c565b92915050565b6000620003d4620003ce8462000324565b620001ea565b90508083825260208201905060208402830185811115620003fa57620003f962000353565b5b835b81811015620004275780620004128882620003a6565b845260208401935050602081019050620003fc565b5050509392505050565b600082601f8301126200044957620004486200016a565b5b81516200045b848260208601620003bd565b91505092915050565b600080600080600060a0868803121562000483576200048262000160565b5b600086015167ffffffffffffffff811115620004a457620004a362000165565b5b620004b288828901620002b6565b955050602086015167ffffffffffffffff811115620004d657620004d562000165565b5b620004e488828901620002b6565b9450506040620004f7888289016200030d565b93505060606200050a888289016200030d565b925050608086015167ffffffffffffffff8111156200052e576200052d62000165565b5b6200053c8882890162000431565b9150509295509295909350565b600081519050919050565b7f4e487b7100000000000000000000000000000000000000000000000000000000600052602260045260246000fd5b600060028204905060018216806200059c57607f821691505b602082108103620005b257620005b162000554565b5b50919050565b60008190508160005260206000209050919050565b60006020601f8301049050919050565b600082821b905092915050565b6000600883026200061c7fffffffffffffffffffffffffffffffffffffffffffffffffffffffffffffffff82620005dd565b620006288683620005dd565b95508019841693508086168417925050509392505050565b6000819050919050565b60006200066b620006656200065f84620002e9565b62000640565b620002e9565b9050919050565b6000819050919050565b62000687836200064a565b6200069f620006968262000672565b848454620005ea565b825550505050565b600090565b620006b6620006a7565b620006c38184846200067c565b505050565b5b81811015620006eb57620006df600082620006ac565b600181019050620006c9565b5050565b601f8211156200073a576200070481620005b8565b6200070f84620005cd565b810160208510156200071f578190505b620007376200072e85620005cd565b830182620006c8565b50505b505050565b600082821c905092915050565b60006200075f600019846008026200073f565b1980831691505092915050565b60006200077a83836200074c565b9150826002028217905092915050565b620007958262000549565b67ffffffffffffffff811115620007b157620007b062000185565b5b620007bd825462000583565b620007ca828285620006ef565b600060209050601f831160018114620008025760008415620007ed578287015190505b620007f985826200076c565b86555062000869565b601f1984166200081286620005b8565b60005b828110156200083c5784890151825560018201915060208501945060208101905062000815565b868310156200085c578489015162000858601f8916826200074c565b8355505b6001600288020188555050505b505050505050565b7f4e487b7100000000000000000000000000000000000000000000000000000000600052603260045260246000fd5b7f4e487b7100000000000000000000000000000000000000000000000000000000600052601160045260246000fd5b6000620008dc82620002e9565b91507fffffffffffffffffffffffffffffffffffffffffffffffffffffffffffffffff8203620009115762000910620008a0565b5b600182019050919050565b61148b806200092c6000396000f3fe6080604052600436106100a75760003560e01c8063893d20e811610064578063893d20e8146101bc5780638e2b5e69146101e7578063d1a93d1814610210578063d5002f2e1461022c578063f9ab711814610257578063ffdd5cf114610282576100a7565b806317d7de7c146100ac5780631a092541146100d75780632355207a146101025780634ba8ae811461013f5780635b1dac6014610168578063811237ec14610193575b600080fd5b3480156100b857600080fd5b506100c16102bf565b6040516100ce9190610cfb565b60405180910390f35b3480156100e357600080fd5b506100ec610351565b6040516100f99190610cfb565b60405180910390f35b34801561010e57600080fd5b5061012960048036038101906101249190610d85565b6103e3565b6040516101369190610dcb565b60405180910390f35b34801561014b57600080fd5b5061016660048036038101906101619190610e12565b61042c565b005b34801561017457600080fd5b5061017d610600565b60405161018a9190610dcb565b60405180910390f35b34801561019f57600080fd5b506101ba60048036038101906101b59190610ea4565b61060a565b005b3480156101c857600080fd5b506101d1610734565b6040516101de9190610f00565b60405180910390f35b3480156101f357600080fd5b5061020e60048036038101906102099190610ea4565b61075d565b005b61022a60048036038101906102259190610e12565b610890565b005b34801561023857600080fd5b50610241610a22565b60405161024e9190610dcb565b60405180910390f35b34801561026357600080fd5b5061026c610a2c565b6040516102799190610dcb565b60405180910390f35b34801561028e57600080fd5b506102a960048036038101906102a49190610d85565b610a36565b6040516102b69190611041565b60405180910390f35b6060600180546102ce90611092565b80601f01602080910402602001604051908101604052809291908181526020018280546102fa90611092565b80156103475780601f1061031c57610100808354040283529160200191610347565b820191906000526020600020905b81548152906001019060200180831161032a57829003601f168201915b5050505050905090565b60606002805461036090611092565b80601f016020809104026020016040519081016040528092919081815260200182805461038c90611092565b80156103d95780601f106103ae576101008083540402835291602001916103d9565b820191906000526020600020905b8154815290600101906020018083116103bc57829003601f168201915b5050505050905090565b6000600660008373ffffffffffffffffffffffffffffffffffffffff1673ffffffffffffffffffffffffffffffffffffffff168152602001908152602001600020549050919050565b600760003373ffffffffffffffffffffffffffffffffffffffff1673ffffffffffffffffffffffffffffffffffffffff16815260200190815260200160002060009054906101000a900460ff166104b8576040517f08c379a00000000000000000000000000000000000000000000000000000000081526004016104af9061110f565b60405180910390fd5b600660003373ffffffffffffffffffffffffffffffffffffffff1673ffffffffffffffffffffffffffffffffffffffff1681526020019081526020016000205481111561053a576040517f08c379a00000000000000000000000000000000000000000000000000000000081526004016105319061117b565b60405180910390fd5b80600660003373ffffffffffffffffffffffffffffffffffffffff1673ffffffffffffffffffffffffffffffffffffffff168152602001908152602001600020600082825461058991906111ca565b9250508190555080600560008282546105a291906111fe565b925050819055503373ffffffffffffffffffffffffffffffffffffffff166108fc600454836105d19190611232565b9081150290604051600060405180830381858888f193505050501580156105fc573d6000803e3d6000fd5b5050565b6000600454905090565b60008054906101000a900473ffffffffffffffffffffffffffffffffffffffff1673ffffffffffffffffffffffffffffffffffffffff163373ffffffffffffffffffffffffffffffffffffffff1614610698576040517f08c379a000000000000000000000000000000000000000000000000000000000815260040161068f906112e6565b60405180910390fd5b60005b8282905081101561072f57600760008484848181106106bd576106bc611306565b5b90506020020160208101906106d29190610d85565b73ffffffffffffffffffffffffffffffffffffffff1673ffffffffffffffffffffffffffffffffffffffff16815260200190815260200160002060006101000a81549060ff0219169055808061072790611335565b91505061069b565b505050565b60008060009054906101000a900473ffffffffffffffffffffffffffffffffffffffff16905090565b60008054906101000a900473ffffffffffffffffffffffffffffffffffffffff1673ffffffffffffffffffffffffffffffffffffffff163373ffffffffffffffffffffffffffffffffffffffff16146107eb576040517f08c379a00000000000000000000000000000000000000000000000000000000081526004016107e2906112e6565b60405180910390fd5b60005b8282905081101561088b5760016007600085858581811061081257610811611306565b5b90506020020160208101906108279190610d85565b73ffffffffffffffffffffffffffffffffffffffff1673ffffffffffffffffffffffffffffffffffffffff16815260200190815260200160002060006101000a81548160ff021916908315150217905550808061088390611335565b9150506107ee565b505050565b600760003373ffffffffffffffffffffffffffffffffffffffff1673ffffffffffffffffffffffffffffffffffffffff16815260200190815260200160002060009054906101000a900460ff1661091c576040517f08c379a00000000000000000000000000000000000000000000000000000000081526004016109139061110f565b60405180910390fd5b6004548161092a9190611232565b341461096b576040517f08c379a0000000000000000000000000000000000000000000000000000000008152600401610962906113c9565b60405180910390fd5b6005548111156109b0576040517f08c379a00000000000000000000000000000000000000000000000000000000081526004016109a790611435565b60405180910390fd5b80600660003373ffffffffffffffffffffffffffffffffffffffff1673ffffffffffffffffffffffffffffffffffffffff16815260200190815260200160002060008282546109ff91906111fe565b925050819055508060056000828254610a1891906111ca565b9250508190555050565b6000600354905090565b6000600554905090565b610a3e610c16565b6040518060e0016040528060008054906101000a900473ffffffffffffffffffffffffffffffffffffffff1673ffffffffffffffffffffffffffffffffffffffff16815260200160018054610a9290611092565b80601f0160208091040260200160405190810160405280929190818152602001828054610abe90611092565b8015610b0b5780601f10610ae057610100808354040283529160200191610b0b565b820191906000526020600020905b815481529060010190602001808311610aee57829003601f168201915b5050505050815260200160028054610b2290611092565b80601f0160208091040260200160405190810160405280929190818152602001828054610b4e90611092565b8015610b9b5780601f10610b7057610100808354040283529160200191610b9b565b820191906000526020600020905b815481529060010190602001808311610b7e57829003601f168201915b50505050508152602001600354815260200160045481526020016005548152602001600760008573ffffffffffffffffffffffffffffffffffffffff1673ffffffffffffffffffffffffffffffffffffffff16815260200190815260200160002060009054906101000a900460ff1615158152509050919050565b6040518060e00160405280600073ffffffffffffffffffffffffffffffffffffffff16815260200160608152602001606081526020016000815260200160008152602001600081526020016000151581525090565b600081519050919050565b600082825260208201905092915050565b60005b83811015610ca5578082015181840152602081019050610c8a565b60008484015250505050565b6000601f19601f8301169050919050565b6000610ccd82610c6b565b610cd78185610c76565b9350610ce7818560208601610c87565b610cf081610cb1565b840191505092915050565b60006020820190508181036000830152610d158184610cc2565b905092915050565b600080fd5b600080fd5b600073ffffffffffffffffffffffffffffffffffffffff82169050919050565b6000610d5282610d27565b9050919050565b610d6281610d47565b8114610d6d57600080fd5b50565b600081359050610d7f81610d59565b92915050565b600060208284031215610d9b57610d9a610d1d565b5b6000610da984828501610d70565b91505092915050565b6000819050919050565b610dc581610db2565b82525050565b6000602082019050610de06000830184610dbc565b92915050565b610def81610db2565b8114610dfa57600080fd5b50565b600081359050610e0c81610de6565b92915050565b600060208284031215610e2857610e27610d1d565b5b6000610e3684828501610dfd565b91505092915050565b600080fd5b600080fd5b600080fd5b60008083601f840112610e6457610e63610e3f565b5b8235905067ffffffffffffffff811115610e8157610e80610e44565b5b602083019150836020820283011115610e9d57610e9c610e49565b5b9250929050565b60008060208385031215610ebb57610eba610d1d565b5b600083013567ffffffffffffffff811115610ed957610ed8610d22565b5b610ee585828601610e4e565b92509250509250929050565b610efa81610d47565b82525050565b6000602082019050610f156000830184610ef1565b92915050565b610f2481610d47565b82525050565b600082825260208201905092915050565b6000610f4682610c6b565b610f508185610f2a565b9350610f60818560208601610c87565b610f6981610cb1565b840191505092915050565b610f7d81610db2565b82525050565b60008115159050919050565b610f9881610f83565b82525050565b600060e083016000830151610fb66000860182610f1b565b5060208301518482036020860152610fce8282610f3b565b91505060408301518482036040860152610fe88282610f3b565b9150506060830151610ffd6060860182610f74565b5060808301516110106080860182610f74565b5060a083015161102360a0860182610f74565b5060c083015161103660c0860182610f8f565b508091505092915050565b6000602082019050818103600083015261105b8184610f9e565b905092915050565b7f4e487b7100000000000000000000000000000000000000000000000000000000600052602260045260246000fd5b600060028204905060018216806110aa57607f821691505b6020821081036110bd576110bc611063565b5b50919050565b7f4f6e6c7920417070726f766564204275796572732043616e2054726164650000600082015250565b60006110f9601e83610c76565b9150611104826110c3565b602082019050919050565b60006020820190508181036000830152611128816110ec565b9050919050565b7f4e6f7420656e6f7567682073686172657320746f2073656c6c00000000000000600082015250565b6000611165601983610c76565b91506111708261112f565b602082019050919050565b6000602082019050818103600083015261119481611158565b9050919050565b7f4e487b7100000000000000000000000000000000000000000000000000000000600052601160045260246000fd5b60006111d582610db2565b91506111e083610db2565b92508282039050818111156111f8576111f761119b565b5b92915050565b600061120982610db2565b915061121483610db2565b925082820190508082111561122c5761122b61119b565b5b92915050565b600061123d82610db2565b915061124883610db2565b925082820261125681610db2565b9150828204841483151761126d5761126c61119b565b5b5092915050565b7f4f6e6c79206f776e65722063616e2063616c6c20746869732066756e6374696f60008201527f6e00000000000000000000000000000000000000000000000000000000000000602082015250565b60006112d0602183610c76565b91506112db82611274565b604082019050919050565b600060208201905081810360008301526112ff816112c3565b9050919050565b7f4e487b7100000000000000000000000000000000000000000000000000000000600052603260045260246000fd5b600061134082610db2565b91507fffffffffffffffffffffffffffffffffffffffffffffffffffffffffffffffff82036113725761137161119b565b5b600182019050919050565b7f496e636f727265637420616d6f756e742073656e740000000000000000000000600082015250565b60006113b3601583610c76565b91506113be8261137d565b602082019050919050565b600060208201905081810360008301526113e2816113a6565b9050919050565b7f4e6f7420656e6f7567682073686172657320617661696c61626c650000000000600082015250565b600061141f601b83610c76565b915061142a826113e9565b602082019050919050565b6000602082019050818103600083015261144e81611412565b905091905056fea2646970667358221220c2df998a37ce58e3952fa1a5297b2f98035033cf058c9a5bebe1f410a1a4d03564736f6c63430008120033",
  "linkReferences": {},
  "deployedLinkReferences": {}
}